:020000040300F7
:04000000BD957EA389
:100004006F00C0506F0080476F0040476F0000478B
:100014006F00C0466F0080466F0040466F00004688
:100024006F00C0456F0080456F0040456F0000457C
:100034006F00C0446F0080446F0040446F00004470
:100044006F00C0436F0080436F0040436F00004364
:100054006F00C0426F0080426F0040426F00004258
:100064006F00C0416F0080416F0040416F00402627
:100074006F0000266F00C0256F0080256F004025AB
:100084006F0000256F00C0246F0080246F0040249F
:100094006F0000246F00C0236F0080236F00402393
:1000A4006F0000236F00C0226F0080226F00402287
:1000B4006F0000226F00C0216F0080216F0040217B
:1000C4006F0000216F00C0206F0080206F0040206F
:1000D4006F0000206F00C01F6F00801F6F00401F63
:1000E4006F00001F6F00C01E6F00801E6F00401E57
:1000F4006F00001E6F00C01D6F00801D6F00401D4B
:100104006F00001D6F00C01C6F00801C6F00401C3E
:100114006F00001C6F00C01B6F00801B6F00401B32
:100124006F00001B6F00C01A6F00801A6F00401A26
:100134006F00001A6F00C0196F0080196F0040191A
:100144006F0000196F00C0186F0080186F0040180E
:100154006F0000186F00C0176F0080176F00401702
:100164006F0000176F00C0166F0080166F004016F6
:100174006F0000166F00C0156F0080156F004015EA
:100184006F0000156F00C0146F0080146F004014DE
:100194006F0000146F00C0136F0080136F004013D2
:1001A4006F0000136F00C0126F0080126F004012C6
:1001B4006F0000126F00C0116F0080116F004011BA
:1001C4006F0000116F00C0106F0080106F004010AE
:1001D4006F0000106F00C00F6F00800F6F00400FA2
:1001E4006F00000F6F00C00E6F00800E130101F945
:1001F400232081042322910423242105232631056D
:1002040023284105232A5105232C6105232E71053A
:1002140023208107232291072324A1072326B10742
:10022400930501112328B106232A3106232C410604
:1002340073251034F325003073263034F32620342C
:10024400232EA1062320B1082322C1082324D10888
:1002540013050100EF00702D01A01300000013012D
:1002640001F9232081042322910423242105232638
:10027400310523284105232A5105232C6105232E0A
:10028400710523208107232291072324A107232614
:10029400B107930501112328B106232A3106232C23
:1002A400410673251034F325003073263034F326C9
:1002B4002034232EA1062320B1082322C10823249D
:1002C400D1081305010073700430EF00F02501A07C
:1002D400130101F62326A1002328B1007325D07E43
:1002E400F325E0BF7310E5BF232CB100F3250030E4
:1002F400232EB100F32510342320B10273252034BA
:10030400B72500009385058073A00530970500008C
:100314009385050173901534730020302320510018
:100324002322610023247100232AC1002322110205
:100334002324D1022326E1022328F102232A0103E4
:10034400232C1103232EC1032320D1052322E105ED
:100354002324F1052726010427281104272A210430
:10036400272C3104272E4104272051062722610619
:10037400272471062726A1062728B106272AC106A5
:10038400272CD106272EE1062720F1082722010970
:10039400272411092726C1092728D109272AE10979
:1003A400272CF109F3223000232E51081375F50F81
:1003B400EF00D0140323410083238100032641016D
:1003C40083204102832681020327C102832701037C
:1003D4000328410383288103032EC103832E0104D0
:1003E400032F4104832F81040720C10487200105C2
:1003F40007214105872181050722C10587220106BE
:1004040007234106872381060725C106872501079F
:1004140007264107872681070727C1078727010881
:100424000728410887288108072EC108872E01095B
:10043400072F4109872F81098322C1097390320054
:100444000325C101F32200308325010293F28200C7
:100454003B920200137575F7731005308322010077
:1004640073901534032581017310E5BF83250101C1
:100474000325C1001301010A73002030130101F6A2
:100484008B1FF1FF130101F6732520341303B00011
:10049400630C65021303800063086502B7050080DE
:1004A4001306F00FB375B5003375C5001306C0000D
:1004B400E30EC5D2E38505DA1301010A8B0FF1FFC0
:1004C4001301010A73002030B723000093830380D3
:1004D40073A00330F32210349382420073901234D9
:1004E4001301010A8B0FF1FF1301010A730020307D
:1004F40063DC7200032E030023A0C2019382420036
:10050400130343006FF0DFFE678000007350003078
:100514007350403073700430970200009382C2AE6F
:10052400938212007390523073D0F07EB70271142C
:1005340003A302121363130023A0621203A3421243
:100544001363130023A26212B7C2DCFE938282A952
:100554003703711413030320232053009701000170
:10056400938161D61731000113018169B7023014F8
:100574009382820003A302001373030223A0620088
:10058400B70200141303000023A2620223A4620230
:1005940023A6620223A8620223A46204B782101075
:1005A4009382023003A302001363130023A06200AA
:1005B4009382A1D317430001130383A49303000080
:1005C40023A0720093824200E3CC62FE970200FFF4
:1005D400938202A3170300001303830B970300FF06
:1005E400938303A2EFF0DFF09382A1D317030000FB
:1005F4001303030A9383A1D3EFF09FEF9382A1D354
:10060400171300001303C347938321D4EFF05FEE65
:100614007350007C0F00F00F7350107C0F00F00F2C
:10062400B72200009382820073A00230930200027A
:1006340073A01230B712111193821211739002BC7D
:10064400739012BC739022BC739032BC739042BC02
:10065400739052BC739062BC739072BC739082BCF2
:10066400739092BC7390A2BC7390B2BC7390C2BCE2
:100674007390D2BC7390E2BC7390F2BC7300000020
:0C068400EF00C000EF0070746F00000079
:1006900018816800EF00507911C101A03245192678
:1006A0003245C52CEF0030449F0740787D0163033D
:1006B000F500D926A92D952171282120F92619297F
:1006C000148118820A869128B247100893F6F77FA2
:1006D000AD8393F7F77FD3F707D0B717000307A7CA
:1006E000C770B717000387A60771138776FC938638
:1006F000860DC3F7E76853F706D0938721D49AA7EE
:100700009CE3D3F7E718DCE30928E2471387A1D37A
:10071000C98393F7F71F1CC31482854501452DA19A
:100720009387E1E01B85A7043E21B71600031397CA
:100730002701635B07007177D98F53F507D087A72F
:1007400086715375F510828009677D17F98F53F50F
:1007500017D0F5B731719302810A8B96E20022EF30
:100760000A869145392C82471F076996A55A9384BA
:10077000E1E36394E70085479CA0100889451124B4
:10078000834781011387E1D31CC39C20638A071A26
:100790001010D545FD2237B4101092561C401F078B
:1007A000FFFFE0FFFD8AD12A1CC01C4093E7170021
:1007B0001CC092565C409582C1225CC05C4093E7AD
:1007C00017005CC01C44A256452A1CC41C44B256E7
:1007D0001F06FFFFFFE0F18FFD8A9BA7D7301CC4E7
:1007E000A2565C449582492A5CC4B2565C44958208
:1007F000FD8AF18F9BA7D7305CC4A2561C48A98202
:10080000A52A1CC832571C489305803E29837D8B3E
:10081000F18F9BA7E7301CC82945D9215C40BBD389
:1008200007001C4C37078000D98F1CCC9C206386A6
:1008300007101018D945B1229000DD45992289642E
:100840001384E1E0C257FD143D2A11691AA07D19F5
:10085000352A3EA08647052A5AA00D2A7EA0E257D7
:100860001D221AA425223EA4A647312A5AA4392AB9
:100870007EA49008E14531229010E5451922C64733
:1008800019221AA821223EA88657F5285AA8FD2821
:100890007EA8E647CD281AACD5283EACA657E52061
:1008A0005AACED207EAC9018E945E1281001ED45E9
:1008B000C928C657C9281AB0D1283EB08A47E120B6
:1008C0005AB0E9207EB0E6577D281AB4C1203EB464
:1008D000AA47FD8C1B49F95A46B4231724038144C7
:1008E00093F73400F91713D92400054ABBE1070236
:1008F000094A9B0794049E23268593F9140053F418
:1009000017D0B717000387A747715B592A031B89C4
:1009100029035374F4102935371700030727C771CB
:100920009387E1D49B872707D377A70880E38504C3
:100930004BF48770C0E3BB9AE40C7A640D61648069
:10094000925732579F06FF83FFFF93F707C093E745
:1009500007213ED2A2571166137707C093F707C04D
:1009600093E70721F58FD18F136707213ED4B37723
:10097000D700D18F3ED605B5FD8AF98F9BA7D7202A
:1009800082800145D1A233F7970082809B47F95AB4
:1009900082801882B70700102ACE48003EC2EF00BE
:1009A000B01014821880BB04050161C13B0E250202
:1009B0001F05007D000021A01F0580C3C901B717D6
:1009C000711483A7079437073000B7460F00D98FFB
:1009D000135615001387F623329793860624335750
:1009E000D702930600F09BC7D7E89F05404B4C0009
:1009F000AA86019F9BA7E718014763ECD5061D8BCC
:100A0000B7F6FA0293F7F78F9BA7E7101387F6075D
:100A10002A97938606083357D70293F7F7F0B7164D
:100A200071147D173D8B9BA7E708C19BD98F23A02D
:100A3000F694B79798001387F7673A9693870768F5
:100A40003357F6023686BB7107020947832706E152
:100A50009376F70101579BC7E7F09BA7D710232890
:100A6000F6E01480EF00300699BF1F0540787D0145
:100A7000B9B70507858251B7B717711483A70794D3
:100A80001397B700E34A07FE828018810A86FD4566
:100A900001455D2883C7E1E38DC7B706201882476B
:100AA000D84213F6F701937707FED18FDCC2824755
:100AB00037162018A9833920824737262018D1837A
:100AC00011201481584293F6F701937707FED58FD2
:100AD0005CC28280188183C7E1E39DC30A86D54545
:100AE00001459D20824737167E140327C6A0A9839F
:100AF0008556BD8B1B47D7E29B27F7202326F6A000
:100B000014811F05201030146F00D0009F072010A3
:100B10003014C8431345F5FF82802880138421E4F4
:100B20009F07201030141CC0FD5701475CC01CCC2F
:100B3000228585471CC418C85CC858C4EF00301F04
:100B4000228520806F00F027AA86054563070610DE
:100B5000BBF246029307F01F63E1B7103708711428
:100B600003270800698F75EB9F0798BADCFE2320E6
:100B7000F820B707800099C2B727800037077114A3
:100B80009B85B708FD565C43A9829BC5B644930676
:100B9000F03F9BC7D7D09BA7B7045CC31C439D56AF
:100BA00093F7F78F93E707101CC31C439BC7D7CE5F
:100BB000B7060010D58F1CC31C4393E717001CC356
:100BC000B70771149C43858BE5FF370771141C43ED
:100BD00099838D8BFDFB832707109396F70063C4E1
:100BE0000604832707109396C70063CE0602832767
:100BF00007109396B70063C8060283270760014574
:100C00001CC2832707605CC2832707601CC683273A
:100C100007605CC68327C71093E707012326F710F8
:100C2000232007208280B706711483A7C6103707D8
:100C300008000545D98F23A6F61083A7C610416783
:100C4000D98F23A6F61083A7C61037071000D98FB7
:100C500023A6F61023A00620828082801F0720177B
:100C6000000381463A861C436395A7005B15D60CAA
:100C70008280850631073B9CF63301458280411115
:100C80002EC08685AA958C21AE9082454101828036
:100C90004880AA84A53D2A891F0440420F0095354B
:100CA0003354850233049402953533052541E36DB1
:100CB00085FE44803880AA84014463139400348004
:100CC0001305803EF1370504CDBF3880AA84014466
:100CD0006313940034801305803EE93F0504CDBFC3
:100CE0009307803E638AF5009F0740420F006386AA
:100CF000F500BB920501D1BF75BF59BF82808280CC
:100D00009387A1E61B85A7061C414841828713876C
:100D1000A1E681469F07FE0C00031CC323220700A7
:100D2000850621073B9CF67582808280FDBF11E11C
:100D300001A0E5BF370710107C43C166F916F58F97
:100D4000B70651EAB6977CC38280370710107C4300
:100D5000B70651EAA19F93E71700B6977CC382803C
:100D6000138721211E25184385893E971C4391C96D
:100D700093E717001CC31C43C176FD16F58F1CC3F7
:100D80008280F99BEDBF938721211A259C43BA9756
:100D9000884305898280938721219C431A25C17647
:100DA000FD163E971C438589F58F9BA5B7200CC384
:100DB0008280938721211A259C43BA9788434181D9
:100DC00005898280938721219C431A258D893E972E
:100DD0001C4393F7F7CF9BA5B7100CC38280938772
:100DE00021211A259C43BA97884321810D8982804D
:100DF000138721211E251843411185893306F700E9
:100E00001C4238253EC68547B397E700C207C18715
:100E100093C6F7FF8DC53247C175D98F3247A19F61
:100E20006D8FD98F3EC6B2479BC6F660B247A19F71
:100E30009BA6D72036C6B2471CC241018280B2476A
:100E40003247A19FFD8EC177F98FD58F3EC6E5B79A
:100E5000138721211E25184341112825BA979C4349
:100E60003EC6B2474101A19F33D5A7400589828084
:100E7000138721211E25184341118589B306F700E8
:100E80009C4238253EC68547B397E7003247C207E4
:100E9000C18781CD9BA7E7603247219F9B27F72021
:100EA0003EC6B2479CC24101828093C7F7FF9BC7F1
:100EB000E760DDB7138721211E251843411128253E
:100EC000BA979C433EC6B2474101C18333D5A74080
:100ED00005898280938721219C431A2541113E97E1
:100EE0001C433EC6B2479DC993E717003EC6B247B2
:100EF000C176FD1693E727003EC6B247F58F3EC682
:100F0000B2478176FD16F58F3EC6B247BD569BC7E8
:100F1000D7E43EC6B2471CC341018280F99B3EC65E
:100F2000B247F59BFDB7938721219C431A253E9735
:100F30001C43858B89C7084305810589828001454B
:100F40008280938721219C431A25F576FD163E97D2
:100F50001C438D89F58F9BA5B7180CC3828093879E
:100F600021211A259C43BA97884331810D898280BB
:100F7000938721219C431A25FD893E971C4393F7B3
:100F8000F7E09BA5B7080CC38280938721211A251F
:100F90009C43BA97884311817D8982809387212160
:100FA0009C431A2541113E971C433EC6B24795C14A
:100FB000C166D58F3EC6B247B7060200D58F3EC682
:100FC000B247B7060400D58F3EC6B2471CC34101E5
:100FD0008280C176FD16F58F3EC6B2478176FD163A
:100FE000F58F3EC6B247BD569BC7D7E4F1BF938786
:100FF00021211A259C433E9708431C43C5839BA788
:10100000A76008431BA5A7640589828093872121D7
:101010009C4303588500382541113E9883270800DA
:101020003EC68547B397E700E207E18793C6F7FF1F
:1010300085C93247324641831D8B758F8D561B46BD
:10104000D6E41B27E6203AC63247D98F32479D8B1C
:10105000619BD98F3EC6B2472320F80041018280B0
:10106000B24732479D8BFD8E619BD98E36C6E5B760
:10107000938721211A259C432825BA979C439D8B51
:1010800033D5A740058982802881938721219C43FD
:10109000035885003425BD893E98832708008A06B9
:1010A0003EC6324785671384F7FF1B47E448131693
:1010B00007013D473317D700B24741821347F7FF77
:1010C000718F41763D06F18F618F1BA7E7083AC605
:1010D000B247B396D50032479B47F448A19FD58FBE
:1010E000E18F718FA19F9B27F7083EC6B24723204F
:1010F000F8002481938721211A259C432825BA973B
:101100009C430A05C207D18333D5A7003D8982805D
:10111000938721219C431225382541113E961C427C
:101120003EC68547B397E7003247E207E18785C1AE
:101130009BA7E76032479D8B9F06FFFFF8FF758FE7
:101140009B27F7203EC6B2471CC2410182804183E3
:101150001D8B93C7F7FFF98FB2461F07FFFFF8FFFC
:10116000F9BF938721211A259C432825BA979C43D0
:10117000C1839D8B33D5A740058982809387212128
:101180009C431A2585893E971C43F99BDD8D0CC332
:101190008280938721211A259C43BA978843058929
:1011A00082809387212198431C43858B85CB1F0523
:1011B00080C3C9015C438546BD8B3BE30702BE8605
:1011C000BB81070291461C473355D502819FBBE581
:1011D00007409307F0033385A70282801F054078FC
:1011E0007D01C9BFBBFCF7069947F5B738800041C0
:1011F00093872121AA8480C35C41C9CF1F0780C384
:10120000C9019C4485463BE307029146BB91070216
:10121000BE863357D7029F0700F7C2FF9F06E067DD
:1012200035000545BA9763E6F606DC44B307F702D6
:101230001F07001F0AFABA971F0700E1F505636A46
:10124000F704CD3CDC40184093F617009377E7FF96
:10125000D58F1CC058409C4491205CC01C44D824AD
:1012600093F707F0D98F1CC458449C4805285CC4E8
:101270001C4879777D17F99B1CC85C48F98F5CC8BE
:101280001C50858BF5DF5C4C93E787005CCC753C8C
:10129000014534801F0740787D01A5B793F6F7001C
:1012A000937707FFD58F828038800041AA84593414
:1012B0009C4C584C93F637009377C7FFD58F5CCC86
:1012C0006934014534802880938721218043D13DB2
:1012D0005C44BD8BBBE1070695470547B317F70094
:1012E0003355F5022480938721219C43DC4F8D8B5D
:1012F000BB84070181CF3B8507021F05007D0000ED
:1013000082801F0580C3C901828075BF1F05407898
:101310007D0182804880AA84F9372A8426853D3A57
:10132000AA8411CD48413B760506913A06101A5A17
:10133000301026856D3405803354A40011E81F0455
:10134000007D000031A0352091C71F0480C3C90172
:10135000228544801F0440787D01DDBF192885C3A4
:101360001F0480C3C9012685713305053354A402C7
:10137000F1B7938721219C439C43858B82801F0476
:1013800040787D01CDB7313D03A944009F07841902
:1013900000032A845B9927258327C901CDD3192807
:1013A00055D93B0AE50183270902D1DB2120060438
:1013B00009056DBF2685828728802E844530054724
:1013C00019CD5C4105473BF607079F0684190003CA
:1013D000DB97F6249C4781C7A285829701473A850F
:1013E000248082801841AE87BB01060181471B071C
:1013F000B7041CC382801C4103A5C73F6D8D3335E4
:10140000A0008280184193C7F5FF83260741FD8E17
:101410002328D7409306E6FF3BF906028326874040
:10142000FD8E2324D7406F034009CD8E2322D74061
:10143000BB1016038327C740CD8F3DA8BB160604FB
:101440006F030007F58F2322F74083278740CD8F56
:101450002324F74025A0BB7F06026F030006FD8E04
:101460002322D74083268740FD8E2324D740BB010B
:10147000F6018326C740F58F2326F7408327C7410F
:101480000145CD8F232EF74083270741DD8D23288B
:10149000B74082803B1AF6056F038001FD8E232240
:1014A000D740832687400545F58F2324F740828067
:1014B0008326C740FD8E2326D740832647400283DC
:1014C000288018452A8414415C4139EB03A7064063
:1014D00093C7F7FFF98F23A0F64058401048BA870A
:1014E000BB01060181479B86E6049CC250444C40E8
:1014F0002285093F85471CCC89471CD091471CD4C5
:10150000A1471CD8C1471CDC930700023CC09307CD
:1015100000043CC4930700083CC822852080D1B554
:10152000BB1EE70103A70640D98F75B782801880DC
:101530001C410547D8C7584198C3184D98CF9847C4
:101540001377F7F798C7944758451376170013F7A2
:10155000F6FD1B27C70A98C7984714494D9B8D8AEB
:101560001B27D70498C798475449B92098C71845EE
:101570003B1C070298471367170098C71C41834616
:101580004502D84F1528D8CF03475502D44F1376BC
:10159000170013F7E6FF518FD8CF493F014514805C
:1015A0009847799B98C7184594473336E00013F75E
:1015B000F6FB1B27C70CD1B7858A759B1B27D70263
:1015C00082801C4198471367070898C7828018815A
:1015D00051208547A307F10091451385E126052099
:1015E00065FD8347F100930500081385612193C7CA
:1015F0001700A307F1000346F100ED33F1BF388077
:101600002A84AE840D2001ED9305803E7945EFF0EC
:101610002FED0128854701E529207DDD81473E85A5
:101620003480A6852285C1BB2882B70700103EC240
:101630008D473EC6930700022A843EC8480089476A
:1016400002C402CA3ECE5D3601E5F2471CC02482C8
:101650000545F5BF4880B7077F14D84B419B9528B7
:101660001377F7FC13670702AD201377F7F7952080
:101670001377F7EFB92813670720A1281377F7BF6F
:10168000D8CB9928B7079F14812885453705501472
:10169000253313856121B707501401441CC1054946
:1016A0009307000C95445CC12324250100C944C55F
:1016B000013DCA853725501401331385E126B7272C
:1016C00050141CC1914700C500C944C55CC140808D
:1016D000C5BBD8CBD84B8280984B419B98CB984BBD
:1016E0001377F7FC1367070298CB984B1377F7F73C
:1016F00098CB984B1377F7EF98CB984B136707204D
:1017000098CB984B1377F7BF98CB82805F294B3BE0
:101710006666263F000080390000003F000000455B
:101720000000001400000000300000000010001451
:101730000000000034000000002000140000000041
:101740003800000000003014000000003C000000E1
:1017500020003014000000003C0000000010301495
:1017600000000000400000002010301400000000C5
:101770004000000000007014000000004400000061
:101780000010701400000000480000000000401429
:10179000000000004C0000000000201400000000C9
:1017A000500000000000601402000000540000001F
:1017B0000000B01401000000580000000010B01438
:1017C00001000000580001000020B01401000000DA
:1017D000580002000000001C010000005C00000036
:1017E00000005014010000006400000000105014BC
:1017F00001000000640001000020501401000000FE
:101800006400020000305014010000006400030076
:101810000040501401000000640004000050501407
:101820000100000064000500006050140100000089
:1018300064000600007050140100000064000700FE
:1018400000001014010000006800000000104014A7
:10185000060000006C0000000000C0140100000041
:101860007000000000007D14010000007400000002
:1018700000008014010000007C0000000000A014A3
:1018800001000000800000000010A0140100000012
:10189000800001000020A014010000008000020070
:1018A0000030A01401000000800003000040A014DC
:1018B00001000000800004000050A014010000009E
:1018C000800005000060A0140100000080000600F8
:1018D0000070A01401000000800007000080A01428
:1018E000010000008000080008003018010000001E
:1018F0009000000008103018010000009000010066
:10190000082030180100000090000200000020189C
:1019100001000000980000000010201801000000E5
:10192000980001000020201801000000980002002B
:1019300000000018030000008400000000100018E0
:1019400003000000880000000020001803000000D1
:101950008C0000000000301804000000940000001B
:10196000001030180400000094000100002030181E
:101970000400000094000200000071140500000043
:101980006000000000000000960D0003600D0003E1
:10199000C40D000300000000B20D0003860D00031B
:1019A000DE0D00030000000001000000700E0003C7
:1019B000F00D00030000000000000000B40E000362
:1019C000500E0003000000000000000002000000B4
:1019D000700E0003F00D0003000000000000000086
:1019E000B40E0003500E00030000000000000000D1
:1019F000030000009C0F0003D40E0003420F0003FD
:101A0000700F0003EE0F0003260F00035E0F0003AC
:101A10008A0F000304000000101100030C100003E3
:101A20000000000088100003621100037010000322
:101A300000000000F410000305000000000000009A
:101A40007C11000300000000000000000000000006
:101A500092110003000000000000000006000000DA
:101A6000700E0003F00D00030000000000000000F5
:101A7000B40E0003500E0003000000000000000040
:081A8000FF010000FF0000005F
:0400000503000004F0
:00000001FF
